{
  "contractName": "DocAuth",
  "abi": [
    {
      "constant": true,
      "inputs": [
        {
          "name": "",
          "type": "bytes32"
        }
      ],
      "name": "documentdata",
      "outputs": [
        {
          "name": "recordHash",
          "type": "bytes32"
        },
        {
          "name": "authorName",
          "type": "bytes32"
        },
        {
          "name": "title",
          "type": "bytes32"
        },
        {
          "name": "email",
          "type": "bytes32"
        },
        {
          "name": "timestamp",
          "type": "uint256"
        },
        {
          "name": "isDocExists",
          "type": "bool"
        }
      ],
      "payable": false,
      "stateMutability": "view",
      "type": "function"
    },
    {
      "constant": true,
      "inputs": [],
      "name": "owner",
      "outputs": [
        {
          "name": "",
          "type": "address"
        }
      ],
      "payable": false,
      "stateMutability": "view",
      "type": "function"
    },
    {
      "constant": false,
      "inputs": [
        {
          "name": "newOwner",
          "type": "address"
        }
      ],
      "name": "transferOwnership",
      "outputs": [],
      "payable": false,
      "stateMutability": "nonpayable",
      "type": "function"
    },
    {
      "anonymous": false,
      "inputs": [
        {
          "indexed": true,
          "name": "recordHash",
          "type": "bytes32"
        },
        {
          "indexed": false,
          "name": "authorName",
          "type": "bytes32"
        },
        {
          "indexed": false,
          "name": "title",
          "type": "bytes32"
        },
        {
          "indexed": false,
          "name": "email",
          "type": "bytes32"
        },
        {
          "indexed": false,
          "name": "timestamp",
          "type": "uint256"
        },
        {
          "indexed": false,
          "name": "isDocExists",
          "type": "bool"
        }
      ],
      "name": "_NewDocAuth",
      "type": "event"
    },
    {
      "anonymous": false,
      "inputs": [
        {
          "indexed": true,
          "name": "previousOwner",
          "type": "address"
        },
        {
          "indexed": true,
          "name": "newOwner",
          "type": "address"
        }
      ],
      "name": "OwnershipTransferred",
      "type": "event"
    },
    {
      "constant": false,
      "inputs": [
        {
          "name": "recordHash",
          "type": "bytes32"
        },
        {
          "name": "authorName",
          "type": "bytes32"
        },
        {
          "name": "title",
          "type": "bytes32"
        },
        {
          "name": "email",
          "type": "bytes32"
        }
      ],
      "name": "authNewDoc",
      "outputs": [],
      "payable": false,
      "stateMutability": "nonpayable",
      "type": "function"
    },
    {
      "constant": true,
      "inputs": [
        {
          "name": "record",
          "type": "bytes32"
        }
      ],
      "name": "exists",
      "outputs": [
        {
          "name": "",
          "type": "bool"
        }
      ],
      "payable": false,
      "stateMutability": "view",
      "type": "function"
    },
    {
      "constant": true,
      "inputs": [
        {
          "name": "record",
          "type": "bytes32"
        }
      ],
      "name": "getDocDetailFromHash",
      "outputs": [
        {
          "name": "",
          "type": "bytes32"
        },
        {
          "name": "",
          "type": "bytes32"
        },
        {
          "name": "",
          "type": "bytes32"
        },
        {
          "name": "",
          "type": "uint256"
        }
      ],
      "payable": false,
      "stateMutability": "view",
      "type": "function"
    },
    {
      "constant": true,
      "inputs": [
        {
          "name": "authorName",
          "type": "bytes32"
        }
      ],
      "name": "getDocDetailFromAuthorName",
      "outputs": [
        {
          "name": "",
          "type": "bytes32[]"
        }
      ],
      "payable": false,
      "stateMutability": "view",
      "type": "function"
    }
  ],
  "bytecode": "0x6060604052336000806101000a81548173ffffffffffffffffffffffffffffffffffffffff021916908373ffffffffffffffffffffffffffffffffffffffff16021790555061080b806100536000396000f300606060405260043610610083576000357c0100000000000000000000000000000000000000000000000000000000900463ffffffff16806320e32b801461008857806338a699a4146100d65780636408609f146101155780638b36d37a146101975780638da5cb5b14610213578063a418ac6914610268578063f2fde38b146102d0575b600080fd5b341561009357600080fd5b6100d4600480803560001916906020019091908035600019169060200190919080356000191690602001909190803560001916906020019091905050610309565b005b34156100e157600080fd5b6100fb600480803560001916906020019091905050610466565b604051808215151515815260200191505060405180910390f35b341561012057600080fd5b61013a60048080356000191690602001909190505061049b565b60405180876000191660001916815260200186600019166000191681526020018560001916600019168152602001846000191660001916815260200183815260200182151515158152602001965050505050505060405180910390f35b34156101a257600080fd5b6101bc6004808035600019169060200190919050506104e4565b6040518080602001828103825283818151815260200191508051906020019060200280838360005b838110156101ff5780820151818401526020810190506101e4565b505050509050019250505060405180910390f35b341561021e57600080fd5b61022661056f565b604051808273ffffffffffffffffffffffffffffffffffffffff1673ffffffffffffffffffffffffffffffffffffffff16815260200191505060405180910390f35b341561027357600080fd5b61028d600480803560001916906020019091905050610594565b6040518085600019166000191681526020018460001916600019168152602001836000191660001916815260200182815260200194505050505060405180910390f35b34156102db57600080fd5b610307600480803573ffffffffffffffffffffffffffffffffffffffff16906020019091905050610625565b005b600080600086600019161415151561032057600080fd5b60016000876000191660001916815260200190815260200160002091508582600001816000191690555084826001018160001916905550838260020181600019169055508282600301816000191690555042826004018190555060018260050160006101000a81548160ff02191690831515021790555060026000866000191660001916815260200190815260200160002090508060000180548060010182816103ca919061077a565b91600052602060002090016000889091909150906000191690555085600019167f13ac4f17755a96893e26e0408022f92574e864c73bd5e20b67d65517bafda88986868642600160405180866000191660001916815260200185600019166000191681526020018460001916600019168152602001838152602001821515151581526020019550505050505060405180910390a2505050505050565b600060016000836000191660001916815260200190815260200160002060050160009054906101000a900460ff169050919050565b60016020528060005260406000206000915090508060000154908060010154908060020154908060030154908060040154908060050160009054906101000a900460ff16905086565b6104ec6107a6565b60008060026000856000191660001916815260200190815260200160002091508160000190508080548060200260200160405190810160405280929190818152602001828054801561056157602002820191906000526020600020905b81546000191681526020019060010190808311610549575b505050505092505050919050565b6000809054906101000a900473ffffffffffffffffffffffffffffffffffffffff1681565b6000806000806001600086600019166000191681526020019081526020016000206001015460016000876000191660001916815260200190815260200160002060020154600160008860001916600019168152602001908152602001600020600301546001600089600019166000191681526020019081526020016000206004015493509350935093509193509193565b6000809054906101000a900473ffffffffffffffffffffffffffffffffffffffff1673ffffffffffffffffffffffffffffffffffffffff163373ffffffffffffffffffffffffffffffffffffffff1614151561068057600080fd5b600073ffffffffffffffffffffffffffffffffffffffff168173ffffffffffffffffffffffffffffffffffffffff16141515156106bc57600080fd5b8073ffffffffffffffffffffffffffffffffffffffff166000809054906101000a900473ffffffffffffffffffffffffffffffffffffffff1673ffffffffffffffffffffffffffffffffffffffff167f8be0079c531659141344cd1fd0a4f28419497f9722a3daafe3b4186f6b6457e060405160405180910390a3806000806101000a81548173ffffffffffffffffffffffffffffffffffffffff021916908373ffffffffffffffffffffffffffffffffffffffff16021790555050565b8154818355818115116107a1578183600052602060002091820191016107a091906107ba565b5b505050565b602060405190810160405280600081525090565b6107dc91905b808211156107d85760008160009055506001016107c0565b5090565b905600a165627a7a72305820fdd91727e0afead5b429d7af93c547fdd4770c81534bda02011e67102384e3f10029",
  "source": "pragma solidity ^ 0.4.6;\n\nimport './Ownable.sol';\n\ncontract DocAuth is Ownable {\n\n  struct DocumentData {\n    bytes32 recordHash;\n    bytes32 authorName;\n    bytes32 title;\n    bytes32 email;\n    uint timestamp;\n    bool isDocExists;\n  }\n  \n  struct Author {\n      bytes32[] documentId;\n  }\n\n  mapping(bytes32 => DocumentData) public documentdata;\n  mapping(bytes32 => Author)  author;\n\n  event _NewDocAuth(bytes32 indexed recordHash, bytes32 authorName, bytes32 title, bytes32 email, uint256 timestamp, bool isDocExists);\n\n  function authNewDoc(bytes32 recordHash, bytes32 authorName, bytes32 title, bytes32 email) external {\n\n    require(recordHash != \"\");\n\n    var docdata = documentdata[recordHash];\n    docdata.recordHash = recordHash;\n    docdata.authorName = authorName;\n    docdata.title = title;\n    docdata.email = email;\n    docdata.timestamp = block.timestamp;\n    docdata.isDocExists = true;\n\n    var authorStruct = author[authorName];\n    authorStruct.documentId.push(recordHash);\n\n    _NewDocAuth(recordHash, authorName, title, email, block.timestamp, true);\n  }\n\n\n  function exists(bytes32 record) view public returns(bool) {\n    return documentdata[record].isDocExists;\n  }\n\n  function getDocDetailFromHash(bytes32 record) view public returns ( bytes32,bytes32,bytes32,uint256) {\n    return  ( documentdata[record].authorName , documentdata[record].title, documentdata[record].email, documentdata[record].timestamp );\n  }\n\n  function getDocDetailFromAuthorName(bytes32 authorName) view public returns(bytes32[]) {\n   var authorStruct = author[authorName];\n   var documentIdArray = authorStruct.documentId;\n    return (documentIdArray);\n  }\n}",
  "sourcePath": "/Users/Apple/Code/docauth/contracts/DocAuth.sol",
  "compiler": {
    "name": "solc",
    "version": "0.4.21+commit.dfe3193c.Emscripten.clang"
  },
  "schemaVersion": "2.0.0",
  "updatedAt": "2018-04-15T15:17:04.938Z"
}